:020000040800F2
:10000000100700200101000847280008951D00087E
:100010004528000829090008712C0008000000008C
:10002000000000000000000000000000E9280008B7
:100030002B0900080000000049280008C529000815
:100040001B0100081B0100081B0100081B01000820
:100050001B0100081B0100081B0100081B01000810
:100060001B0100081B0100081B0100081B01000800
:100070001B0100081B0100081B0100081B010008F0
:100080001B0100081B0100081B0100081B010008E0
:100090001B0100081B0100081B0100081B010008D0
:1000A0001B0100081B0100081B0100081B010008C0
:1000B0001B0100081B0100081B0100081B010008B0
:1000C0001B0100081B0100081B0100081B010008A0
:1000D0001B010008652C00081B0100081B0100081B
:1000E0001B0100081B0100081B010008DFF80CD0F1
:1000F00000F008FC004800473933000810070020D2
:100100000648804706480047FEE7FEE7FEE7FEE7B1
:10011000FEE7FEE7FEE7FEE7FEE7FEE7172A000838
:10012000ED000008202A04DB203A21FA02F0002129
:10013000704721FA02F3D040C2F1200291400843F7
:1001400019467047D2B201E000F8012B491EFBD2DC
:1001500070470022F6E710B513460A4604461946D2
:10016000FFF7F0FF204610BD421E12F8013F002BA2
:10017000FBD111F8013B02F8013B002BF9D170478C
:1001800030B505462A460B4612F8010B13F8014B11
:1001900008B1A042F8D01CB1002802D06D1CF1E7D4
:1001A000284630BD421C10F8011B0029FBD1801AE3
:1001B0007047F0B480EA0102D40F4200B2EB410F65
:1001C00002D20246084611464A0042D0C30DDDB2B3
:1001D000C1F3C752AD1A202D35DAC1F3160141F42F
:1001E000000204B15242C5F1200602FA06F12A418A
:1001F0001044B3EBD05F23D0C4B1012DA0EBC350AA
:1002000009DCF0BC4FF0004202EAC352DBB200F559
:10021000000000F09BBA400000F1807000EBC3507A
:10022000A0F1807040EAD170490009E0490841EA34
:10023000C071A0EBC35000F50000400800EBC350B4
:10024000F0BC00F07ABA6142012202EB4101001BCE
:10025000F6E7F0BC704781F00041AAE780F000406B
:10026000A7E730B480EA010202F0004530F0004216
:1002700021F0004013D090B1C30DD40DC2F316018C
:10028000C0F31600E41A41F4000140F400027D348A
:10029000914201D3641C00E04900002C02DA30BC1A
:1002A000002070474FF400000023914201D3891AC7
:1002B000034340084FEA4101F7D151B1914202D1C5
:1002C0004FF0004105E002D24FF0010101E06FF074
:1002D000010103EBC450284430BC00F02EBA2DE9D4
:1002E000FE4F804681EA0300C00F0C46009021F0CB
:1002F000004123F00045B8EB0200A94105D2404679
:10030000214690461C460B46024623F0004010430F
:1003100047D0270DC7F30A00C3F30A510290401AD1
:10032000019040286BDAC3F3130040F4801B00985F
:10033000924620B10023D2EB030A63EB0B0B01982A
:100340005946C0F14002504600F0D6F906460D4627
:1003500050465946019A00F0DEF910EB0800614161
:10036000002487EA115284EAE7731A4340D0009AC6
:1003700062B3019A012A4FEA075215DC001B61EBB8
:1003800002014FF0004202EA0752CDE90042001C90
:1003900041F5801132462B4600F015FA03B0BDE856
:1003A000F08F40462146F9E7001B61EB0201001C7B
:1003B00041F5801300185B412018A2F5001747EBA8
:1003C000030140EAD570B6196D4111E06D084FEA9E
:1003D000360645EAC0754FEA0752001B61EB020181
:1003E000001C41F5801149084FEA300000195141C5
:1003F00032462B4603B0BDE8F04F00F0D5B9009867
:10040000012240000023D0EB020263EBE07300986E
:1004100021464FEAE074B8EB000061EB0401E9E724
:1004200083F000435BE781F0004158E72DE9FE4F80
:1004300081EA030404F0004421F0004100944FF0ED
:10044000000B23F0004350EA01045ED052EA03049B
:100450005BD0C3F30A54C1F30A552C44A4F2F3341D
:100460000194A0FB0254C1F3130141F48011C3F3C2
:10047000130343F4801301FB024400FB034E840A80
:10048000970A44EA815447EA8357A4FB0768029518
:100490008D0A05FB07854FEA932C04FB0C542705B6
:1004A000029D4FEA065847EA1637B5EB08056EEB92
:1004B000070C870E920E47EA811742EA8312A7FBC8
:1004C0000201B6EB0B0164EB00042B0D43EA0C3385
:1004D0005E1844EB1C50DA465146E7FB0201C5F3B7
:1004E00013044FEA0B3343EA14534FEA0432019CDE
:1004F00043EA0603A4F10C040294009CCDE900B485
:1005000000F061F903B0BDE8F08F00200146F9E783
:100510002DE9F04D81EA030404F0004B21F0004581
:1005200014464FF0000A23F0004150EA050220D0A3
:1005300054EA01021DD0C5F30A570246C5F313035E
:10054000C1F31300C1F30A5640F4801543F480133D
:10055000A7EB0608101BD64608F2FD3873EB050022
:1005600002D308F1010801E092185B41B8F1000FD5
:1005700003DA00200146BDE8F08D00204FF4801121
:10058000064684460EE0171B73EB050705D3121BC6
:1005900063EB050306434CEA010C49084FEA3000BF
:1005A00092185B4150EA0107EDD152EA030012D0E4
:1005B00082EA040083EA0501084305D0101BAB4121
:1005C00006D20122002306E000224FF0004302E0A1
:1005D0006FF0010253101AEB06004CEB085110EBC0
:1005E0000A0041EB0B01BDE8F04D00F0DDB870B53D
:1005F00021F0004303430CD0C1F30A550024D5EB8E
:10060000040564EB0403D617AD1AB34102DB0020E6
:10061000014670BD201841EB025170BDC10F80EA48
:10062000E0700844CA079623002100F08FB80EB589
:10063000C10F80EAE0700844CA07002140F233434A
:100640008DE80E000A460B4600F0BDF803B000BD71
:100650000EB540F2334102910021CDE900110A4666
:100660000B4600F0B0F803B000BD000030B5041E2A
:1006700071F1000404DB4FF00044404264EB0101DF
:10068000141E73F1000405DB1C464FF00043524278
:1006900063EB04038B4208BF824230BD30B5041EB9
:1006A00071F1000404DB4FF00044404264EB0101AF
:1006B000141E73F1000405DB1C464FF00043524248
:1006C00063EB0403994208BF904230BD30B50B463E
:1006D000014600202022012409E021FA02F59D4272
:1006E00005D303FA02F5491B04FA02F52844151E46
:1006F000A2F10102F1DC30BD202A04DB203A00FA2D
:1007000002F1002070479140C2F1200320FA03F368
:10071000194390407047202A06DBCB17203A41FA54
:1007200002F043EAE07306E041FA02F3D040C2F17E
:10073000200291400843194670470029A8BF70471E
:10074000401C490008BF20F00100704710B4B0FA07
:1007500080FC00FA0CF050EA010404BF10BC7047A2
:1007600049B1CCF1200421FA04F411FA0CF118BFBC
:10077000012121430843A3EB0C01CB1D4FEA00618B
:100780004FEA102042BF002010BC704700EBC3505E
:1007900010440029A4BF10BC7047401C490008BF8A
:1007A00020F0010010BC704710B5141E73F1000456
:1007B00008DA401C41F1000192185B411A4301D153
:1007C00020F0010010BD2DE9F04D92469B4611B17D
:1007D000B1FA81F202E0B0FA80F220329046FFF7DF
:1007E0008BFF04460F4640EA0A0041EA0B015346DC
:1007F0005A46084313D0114653EA010019D0C8F1F4
:1008000040025046FFF78EFC05460E4650465946BC
:100810004246FFF771FF084305D0012004E020465F
:100820003946BDE8F08D0020054346EAE0762C43CA
:1008300037430A986305E40AA0EB08000022FD0A8A
:1008400044EA47540A3002D500200146E9E7010591
:1008500010196941DDE9084500196941BDE8F04D0D
:10086000A2E72DE9F04D00231A461B1A8A4103DB4B
:1008700000200146BDE8F08DC1F30A52C1F3130117
:1008800041F480154FF0000BD10702D100186D41E3
:10089000521E0027044640F2FF11384601EB620A5F
:1008A0003E468046024600204FF48011FFF73AFC96
:1008B000C2197141BB1846EB0100B4EB030C75EB98
:1008C000000C04D3E41A65EB000517460E46241904
:1008D00008F101006D4180463428E3DDF91946EB4B
:1008E0000600091BA84103D24FF0FF32134601E076
:1008F000002213461BEB070046EB0A51BDE8F04D02
:10090000FFF752BF064C074D06E0E06840F00103D8
:1009100094E8070098471034AC42F6D3FFF7EAFB9F
:100920004837000868370008FEE7704700210A468C
:10093000034B02E05A54491C89B28142FAD37047F2
:100940000401002010B5C820FFF7F0FF012209497B
:10095000094801F09DF94FF47A73042207A1064873
:1009600001F0BEF907A10848FFF70AFC0028F9D0FA
:10097000002010BD98000020CC02002041540D0A38
:10098000000000004F4B00000401002070B5054638
:100990000C46C820FFF7CAFF01221349134801F093
:1009A00077F923462A4612A1184802F063F917483E
:1009B000FFF7F8FB82B24FF47A7314490B4801F049
:1009C0008FF907E0114812A1C838FFF7D9FB08B129
:1009D000012070BD0D4810A1C838FFF7D1FB0028D9
:1009E000F0D0002070BD000098000020CC02002054
:1009F00041542B43495053544152543D2254435087
:100A0000222C222573222C25690D0A00CC010020FE
:100A10004552524F520000004F4B00002DE9F0416B
:100A200007460E46C820FFF781FF01221D491E48D8
:100A300001F02EF91B4C01204FF47A7560802B4693
:100A40000E221AA1184801F04BF9022060801BA168
:100A50001B48FFF795FB0028F9D003206080114860
:100A600033463A4617A1001D02F004F9052000F0B4
:100A7000A5F80C492B460222091D0B4801F030F95C
:100A80000420608004E011A10D48FFF779FB28B92C
:100A900010A10B48FFF774FB0028F4D005206080FC
:100AA000BDE8F08198000020CC02002041542B4387
:100AB000495053454E443D320D0A00004F4B000053
:100AC000040100202563256300000000627573792E
:100AD000000000006279746573000000704710B573
:100AE00090F821100022022905D00421816380F8AA
:100AF0002020012010BD01680B6823F00E030B605D
:100B000001680B6823F001030B6090F84030C46B60
:100B1000012101FA03F3636080F8211080F820209E
:100B2000104610BD10B590F821100024022903D002
:100B30000421816301243DE001680A6822F00E026D
:100B40000A6001680A6822F001020A601A4A016814
:100B5000914201D1012121E0174A1432914201D181
:100B600010211BE0144A2832914201D1891515E069
:100B7000114A3C32914201D189140FE00E4A5032A1
:100B8000914202D14FF4803108E00B4A6432914225
:100B900002D14FF4801101E04FF08071064A083A0B
:100BA0005160012180F82110002180F82010416B54
:100BB00001B18847204610BD0800024070B50446C8
:100BC00000F00CF90546601C02D00448007804448B
:100BD00000F004F9401BA042FAD370BDF0000020E1
:100BE0002DE9F84FDFF8B891002409F1040A0AF161
:100BF000040B23460F270BF1040EC9E00125A54085
:100C00002A40AA427DD1674ED1F804C0ACEB060859
:100C1000B44532D014DCBCF1030F3AD009DCBCF18E
:100C2000000F2AD0BCF1010F1CD0BCF1020F31D152
:100C30001DE0BCF1110F17D0BCF1120F2AD119E041
:100C4000B8F5881F19D006DCB8F5803F15D0B8F587
:100C5000801F1FD111E0B8F5001F0ED0B8F5041F9A
:100C600018D10AE0CB6815E0CB681B1D12E0CB68F9
:100C700008330FE0CB680C330CE08B682BB1012BF1
:100C80004FF0080303D0456104E0042302E005614E
:100C900000E00023FF2A01D8064601E000F1040627
:100CA0004FEA840501D9A5F12005D6F8008007FA9E
:100CB00005FC28EA0C0803FA05F548EA0508C6F819
:100CC00000804D68ED0062D5374DAE6946F00106F3
:100CD000AE61AD6924F0030605F001050095334DC2
:100CE00006EB050CDCF80850A607360F07FA06F8E5
:100CF00025EA0805DFF8B880404503D14FF0000829
:100D000017E044E0DFF8AC80404502D14FF0010825
:100D10000FE0DFF8A480404502D14FF0020808E060
:100D2000DFF89880404502D14FF0030801E04FF012
:100D3000040808FA06F848EA0508CCF808804D6867
:100D4000D9F80060ED034D4601D5164300E0964307
:100D50002E604D68DAF80060AD03554601D51643A4
:100D600000E096432E604D68DBF80060ED025D46C2
:100D700001D5164300E096432E604D68DEF8006012
:100D8000AD02754601D5164300E096432E60641C03
:100D90000D682A46E5407FF431AFBDE8F88F0000CA
:100DA000000401400000111000100240000001404A
:100DB00000080140000C01400010014000140140F7
:100DC000C26821EA02030A4043EA02410161704716
:100DD0000AB1016170470904FBE70000014880681F
:100DE00070470000F000002070B5040025D094F892
:100DF0003D00002520B984F83C50204600F078FAE8
:100E0000242084F83D002068016821F00101016080
:100E10002068016841F4004101602068016821F404
:100E20000041016000F0C0FB4D4A6168914201D869
:100E30004C4900E04C49884201D2012070BD4B4929
:100E40002368B0FBF1F15E6826F03F060E435E605A
:100E50006368934206D94FF4967359434FF47A73FB
:100E6000B1FBF3F12368491C1E6A26F03F063143AB
:100E700019626168914210D84900401EB0FBF1F23E
:100E8000521CC2F30B02042A01D2042022E0B0FB60
:100E9000F1F0401CC0F30B001CE0A268F2B301EBC0
:100EA000C10303EB0116431EB3FBF6F35B1C43F4D3
:100EB00080431B0549D092B301EBC10202EB011143
:100EC000401EB0FBF1F0401CC0F30B0040F480402A
:100ED00040F400402168CA694CF6FF739A431043FE
:100EE000C861D4E9071001432068026822F0C002FB
:100EF00011430160D4E9030101432068826848F28C
:100F0000FF339A4311438160D4E905010843216806
:100F1000CA6822F0FF021043C86001E00EE016E04C
:100F20002068016841F0010101602564202084F8F7
:100F30003D00256384F83E50002070BD01EB410662
:100F4000431EB3FBF6F35B1CB3E70120C2E701EBE2
:100F50004101401EB0FBF1F0401CC0F30B00B7E7AD
:100F6000A086010080841E0000093D0040420F0061
:100F70002DE9FF4F83B00025DDE910799A469346AD
:100F80000446DDF848800095FFF728FF064694F8F0
:100F90003D0020287CD11923012285492046009656
:100FA00001F008F80028F5D194F83C0001286FD032
:100FB000012084F83C0020680168C90703D101685A
:100FC00041F0010101602068016821F400610160C5
:100FD000222084F83D00402084F83E0025646762AA
:100FE000A4F82A90608D20857248E062CDE90086E1
:100FF00053465A462046049900F0E4FE00287DD16D
:10100000208DDFF8B491202768B1012814D0022880
:10101000206801681ED041F4806101602068416948
:1010200080690090B6E0206841698169009101689B
:1010300041F400710160ADE02068016821F4806135
:10104000016072B62068416981690091016841F4CC
:1010500000710AE041F40061016072B620684169E4
:1010600081690091016821F48061016062B691E0BC
:10107000032868D801280CD0022843464FF000020C
:101080004946204600960FD000F094FFB0BB10E018
:101090008BE032464146204601F00BF870BB2068D9
:1010A0000069616A08706CE000F084FF30BB72B6C2
:1010B00034E02068016821F48061016072B6206824
:1010C0000069616A0870606A401C6062208D401E81
:1010D0002085608D401E6085384846F2A811006862
:1010E000B0FBF1F0C0EBC00000EB80000090401EB0
:1010F000009008D020684069C04300E029E0400724
:101100000CD50098F3E744F8305F6773A573206946
:1011100040F02000206162B625731AE02068016863
:1011200041F40071016020680069616A0870606ABA
:10113000401C6062218D491E2185618D491E61859B
:1011400062B621681BE032464146204600F0B1FFFE
:1011500018B1012007B0BDE8F08F20680069616A0E
:101160000870606A401C6062218D491E2185618D76
:10117000491E618521684A69D24352070AD4096928
:101180000170606A401C6062208D401E2085608D69
:10119000401E6085208D00287FF46AAF84F83D7082
:1011A00084F83E5084F83C50D4E70220D2E7000097
:1011B000020010000000FFFF04000100FC000020FE
:1011C0002DE9FF4F83B09A46DDE911979346044617
:1011D000DDF84080FFF702FE054694F83D00202828
:1011E0007FD11923012240492046009500F0E2FEFC
:1011F000002876D194F83C00012872D0012084F8B0
:101200003C0020680168C90703D1016841F0010171
:1012100001602068016821F400610160212084F8E8
:101220003D00402084F83E0000262664C4F8248057
:10123000A4F82A90608D20852C48E062CDE90075E5
:1012400053465A462046049900F03AFE70B930E001
:101250002A463946204600F05FFF58B1206C04282A
:1012600004D12068016841F400710160012007B0D9
:10127000BDE8F08F606A216800780861606A401CF0
:101280006062218D491E89B22185628D521E628560
:1012900022685369DB435B070BD469B100781061A6
:1012A000606A401C6062208D401E2085608D401E5B
:1012B0006085208D0028CBD12A463946204600F093
:1012C00053FE0028CAD154F83D0B016841F4007167
:1012D0000160202004F81E09E67766770020C6E743
:1012E000FFE70220C3E70000020010000000FFFF3C
:1012F00010B586B000210091019102910391006820
:101300000F4988421AD10F4CA06940F00800A06133
:10131000A069694600F008000490C02000901220E7
:101320000190032003900848FFF75AFCE06940F45D
:101330000010E061E06900F40010049006B010BDF8
:101340000054004000100240000C01400248816837
:101350000278114481607047F0000020074810B502
:10136000016841F010010160032000F075F80020D1
:1013700000F006F800F024F8002010BD0020024024
:1013800070B50D4D04464FF47A712878B1FBF0F03A
:101390000A490968B1FBF0F000F0ECFA48B9102CEA
:1013A00007D200222146501E00F036F800206C6063
:1013B00070BD012070BD0000F0000020FC00002086
:1013C0000C4808B5816941F001018161816901F032
:1013D00001010091C16941F08051C161C06900F013
:1013E000805000900448416821F0E06141F00071B4
:1013F000416008BD0010024000000140002809DBE8
:1014000000F01F02012191404009800000F1E0201E
:10141000C0F8001170470000F0B40E4B1B680C467A
:10142000C3F30223C3F10705042D00D90425191DB8
:10143000072901D2002300E0DB1E012606FA05F190
:10144000491E214099409E40761E16403143F0BC13
:1014500001F038BC0CED00E0064900F00702086816
:101460004FF6FF03184040EA0220034A1043086089
:10147000704700000CED00E00000FA052DE9F04790
:101480000F46050061D0434E306800F00700B842B7
:1014900009D2306820F0070038433060306800F02F
:1014A0000700B84251D128683B4C810712D540074C
:1014B00003D5606840F4E06060602878000703D5D9
:1014C000606840F4605060606068A96820F0F000D7
:1014D000084360602878C00728D06868012810D0C9
:1014E0002168022810D0890700292EDA616821F0CE
:1014F000030101436160FFF771FC804641F28839C6
:101500000DE021688903EFE78901EDE7FFF766FC4D
:10151000A0EB0801494502D90320BDE8F0876068C7
:10152000696800F00C00B0EB810FEFD1306800F07B
:101530000700B8420BD9306820F00700384330600C
:10154000306800F00700B84201D00120E5E72878B4
:10155000400705D56068E96820F4E06008436060F2
:101560002878000706D56068296920F4605040EAB1
:10157000C100606000F038F86168084AC1F30311E7
:10158000515CC8400649086006480068FFF7F8FE4D
:101590000020C2E700200240001002409036000800
:1015A000FC000020F4000020044805490068496858
:1015B000044AC1F30221515CC8407047FC0000207E
:1015C00000100240A0360008044805490068496838
:1015D000044AC1F3C221515CC8407047FC0000209E
:1015E00000100240A036000812A185B00FC98DE896
:1015F0000F0014A0144A006804905168134801F0C9
:101600000C03042B10D0082B0ED1C1F38343C90364
:101610001DF803000AD5516804AAC1F34041515C8A
:101620000A4A5043B0FBF1F005B0704708494843FF
:10163000FAE7000002030405060708090A0B0C0D6F
:101640000E0F1010010200000010024000127A007C
:1016500000093D002DE9F84F040070D02078C04DFE
:10166000C00749D06868C0F38100012807D06868C6
:10167000C0F38100022809D16868C00306D5286834
:10168000800339D560680028E7D035E06068B0F5A0
:10169000803F0BD010B1B0F5A02F11D0286820F4F6
:1016A00080302860286820F4802002E0286840F418
:1016B00080302860606890B1FFF790FB06460AE032
:1016C000286840F480202860F0E700BFFFF786FB21
:1016D000801B642873D828688003F7D50CE0FFF7D7
:1016E0007DFB064605E000BFFFF778FB801B642802
:1016F000F0D828688003F7D420789A4E80074FF0FE
:1017000001094FF0000839D5686810F00C0F07D0B8
:101710006868C0F38100022809D16868C00306D454
:101720002868800714D52069012808D110E02069B5
:10173000B0B1C6F80090FFF751FB074605E00AE19B
:10174000FFF74CFBC01B0228C4D828688007F7D5D8
:101750002868616920F0F80040EAC10028600DE0C7
:10176000C6F80080FFF73AFB074604E0FFF736FBB8
:10177000C01B022823D828688007F7D420780007E8
:101780002CD57948A169D9B1C0F80090FFF726FBA4
:10179000074604E0FFF722FBC01B02280FD8686A47
:1017A0008007F7D571484FF4FA510068B0FBF1F0AB
:1017B000009000BF0098411E0091FAD20EE080E038
:1017C000C0F80080FFF70AFB074604E0FFF706FBBE
:1017D000C01B022875D8686A8007F7D420784007B4
:1017E00060D5E8690027C00008D4E86940F080505F
:1017F000E861E869012700F0805000905C480168CA
:10180000C90513D40168834641F480710160FFF774
:10181000E5FA824606E000BFFFF7E0FAA0EB0A0017
:1018200064284ED8DBF80000C005F5D5E068012833
:101830000AD008B1052813D0286A20F001002862D8
:10184000286A20F0040002E0286A40F001002862C3
:10185000E06841F2883B98B1FFF7C0FA82460BE09E
:10186000286A40F004002862EEE700BFFFF7B6FAEE
:10187000A0EB0A0159455AD8286A8007F6D50CE032
:10188000FFF7ACFA824605E0FFF7A8FAA0EB0A01E1
:1018900059454CD8286A8007F6D41FB1E86920F072
:1018A0008050E861E06988B36968C1F38101022969
:1018B00044D00228C6F8608004D0FFF78FFA0446AF
:1018C00038E034E0FFF78AFA074604E0FFF786FACB
:1018D000C01B02282BD828688001F7D4206AB0F5F5
:1018E000803F05D16868A16820F400300843686033
:1018F000D4E908010843696821F474110843686059
:10190000C6F86090FFF76AFA044606E025E000BFDB
:10191000FFF764FA001B022809D828688001F7D570
:101920001BE000BFFFF75AFA001B022802D9032070
:10193000BDE8F88F28688001F4D40EE00128F7D0C4
:101940006868226A00F48031914204D1616A00F42F
:101950007010884201D00120EAE70020E8E700008B
:10196000001002400000424280044242FC0000207D
:101970000070004010B5401EB0F1807F01D30120FF
:1019800010BD4FF0E02460610F21601701F09AF95B
:101990000020A06107202061002010BD7047704723
:1019A000F8B5026804461068D168536910F00F0F4B
:1019B0004FF0000553D003F0010601F49077374350
:1019C0005FD0C20705D0CA0503D5226C42F00102E0
:1019D0002264420705D5DA0703D0226C42F00202E6
:1019E0002264820705D5DA0703D0226C42F0040294
:1019F0002264020707D501F02002324303D0226C93
:101A000042F008022264226C002A34D0800604D5F9
:101A1000880602D5204601F01FF820684069216C35
:101A2000C0F38010090700D430B3204600F0FCFF5B
:101A30002068416949061BD5416921F04001416197
:101A4000A06BA8B158494163A06BFFF76BF8002861
:101A500011D0A06B416B01B0BDE8F0400847830690
:101A60000FD58B060DD52046BDE8F84000F0F4BF39
:101A70002046FFF794FFF8BD2046FFF790FF25644E
:101A8000F8BD266B2023012E52D1C60650D5CE06B6
:101A90004ED5106850680090506940062AD5A16B59
:101AA000086840680004000CEAD0A68D8642E7D999
:101AB000E0858869202818D0D06820F48070D06034
:101AC0002068416921F0010141612068416921F0EC
:101AD0004001416184F83E3025632068C16821F0EF
:101AE0001001C160A06BFEF7FAFFA08DE18D401AD6
:101AF00081B219E0A08DE18D401A81B2E08D0028FD
:101B0000BED00029BCD0D06820F49070D06020688E
:101B1000426922F00102426184F83E302563206868
:101B2000C26822F01002C2602046FFF737FFF8BDFE
:101B300005062BD50D0629D594F83D002128F6D1B0
:101B4000A068B0F5805F01D12069B0B1206A411C66
:101B50002162216800784860E08C401E0004000C7F
:101B6000E084E4D12068C16821F08001C160206870
:101B7000C16841F04001C160F8BD206A0088C0F32F
:101B800008005060206A801C2062E5E74006F3D51B
:101B90004806F1D5D168204621F04001D16084F893
:101BA0003D3000F0F6F8F8BD192A000870B50400C1
:101BB00004D094F83D00002510B106E0012070BD6E
:101BC00084F83C50204600F023F8242084F83D009F
:101BD0002068C16821F40051C160204600F098FFE0
:101BE0002068016921F4904101612068416921F078
:101BF0002A0141612068C16841F40051C160256437
:101C0000202084F83D0084F83E00002070BD0000D4
:101C100030B585B0002400940194029403940068C8
:101C2000184988422CD11848816941F4804181616A
:101C3000816901F480410491816941F0040181616D
:101C40008069124D00F0040004904FF40070009081
:101C5000022001900320039069462846FEF7C0FF4A
:101C60002815CDE90004694628460294FEF7B8FF1E
:101C7000002201212520FFF7CFFB2520FFF7BEFB27
:101C800005B030BD0038014000100240000801409E
:101C900090F83E30202B0ED159B152B190F83C3023
:101CA000012B08D0012380F83C300023036300F0AF
:101CB0008BBF0120704702207047000010B5054916
:101CC0000548FEF751FABDE81040012201490348DA
:101CD000FFF7DEBF9800002004010020CC020020A6
:101CE0002DE9F843044690F83D001F4616460D4680
:101CF00020284CD1C5B1BEB194F83C00012846D093
:101D0000012084F83C004FF00008C4F840802120F6
:101D100084F83D00FFF762F8A6848146E684A06857
:101D2000B0F5805F03D004E00120BDE8F8832069AE
:101D300028B12E465FF0000584F83C800EE00026B6
:101D4000FAE78021204600F05AFFA0B9AEB116F89C
:101D5000010B21684860E08C401EE084E08C4B461B
:101D60004FF0000200970028EBD14FF040012046D1
:101D700000F045FF30B10320D7E735F8020BC0F380
:101D80000800E6E7202084F83D000020CDE702208F
:101D9000CBE77047FEE701684A69D24352050FD48A
:101DA0006FF480624A61002140F8301F20224273A4
:101DB0008173026942F004020261017301207047DD
:101DC000002070472DE9F84F0446006889460B9DB6
:101DD00001689846174641F48061016020680168F7
:101DE00041F48071016000954FF0011B00225946BB
:101DF00020460A9B00F0DEF84FF4007A40B12068DC
:101E00000068C00501D5C4F840A00320BDE8F88FE4
:101E1000216809F0FE0008612B46284920460A9AED
:101E200000F0FCF8F0BB20684169806900902A4608
:101E300020460A9900F070F940B1206C04283AD18C
:101E40002068016841F40071016034E0FEB2B8F12D
:101E5000010F09D02168380A08612A4620460A99EC
:101E600000F05AF90028E8D1206806612A46204689
:101E70000A9900F051F90028DFD12068016841F487
:101E80008071016000950022594620460A9B00F0AF
:101E900091F80028B3D1216809F0FF0040F001005B
:101EA000086100E007E02B46044920460A9A00F04A
:101EB000B5F80028AAD00120A8E700000200010020
:101EC0002DE9F843044600680D46DDE908970168EE
:101ED0009846164641F4807101604B4600224FF04F
:101EE00001112046009700F065F848B120680068AD
:101EF000C00502D54FF4007020640320BDE8F883CC
:101F0000216805F0FE0008613B464A461549204617
:101F100000F084F888B920684169806900903A46E9
:101F20004946204600F0F8F848B1206C042804D156
:101F30002068016841F4007101600120DEE7F5B21C
:101F4000B8F1010F09D02168300A08613A464946C4
:101F5000204600F0E1F80028E7D120680561002064
:101F6000CCE700000200010070B516460D4604469D
:101F70000DE02046FFF70FFF08B1012070BD681C7F
:101F800005D0FEF72BFF801BA84207D835B120688B
:101F90004069C0434007ECD4002070BD002044F8E5
:101FA000300F20216173A073216941F0200121616C
:101FB0002073E2E72DE9F0471E4690460D460446A1
:101FC000C1F30747DDF8209008E0701C06D0FEF74B
:101FD00005FFA0EB0900B0420FD876B12068012FB1
:101FE00018D0806925EA00000004000C14D00021FC
:101FF0004145EAD00020BDE8F087002044F8300FCA
:1020000020216173A073216941F0200121612073B7
:102010000120F0E74069E5E70121E9E72DE9F04714
:102020009A4691460E46044600254FF02008C1F31B
:10203000074725E020684069C043400514D4206864
:10204000016841F40071016021686FF480604861AB
:10205000256384F83D8084F83E50206C40F00400F5
:10206000206484F83C501FE0B9F1FF3F08D0FEF730
:10207000B5FEA0EB0A0149450CD8B9F1000F09D013
:102080002068012F13D0806926EA00000004000CAC
:102090000BD0CFE744F8305F84F80D80A57320693A
:1020A00040F02000206125730120BDE8F0874069E1
:1020B000EAE72DE9F041002590460E460446202728
:1020C00017E04069C043C0060CD454F8301B6FF0D1
:1020D0001000486144F810596777A577206A20629C
:1020E000257717E0FEF77AFEA0EB0800B04208D88B
:1020F0003EB120684169C9434906E2D40020BDE8E9
:10210000F08144F8305F6773A573206940F02000C8
:10211000206125730120F2E770B516460D4604468E
:102120000DE02046FFF737FE08B1012070BD681CA6
:1021300005D0FEF753FE801BA84207D835B12068B2
:102140004069C0430006ECD4002070BD002044F874
:10215000300F20216173A073216941F020012161BA
:102160002073E2E72DE9FF5F96B024AD044695E8C1
:102170008301D4E9082308930692FEF751F93A4601
:102180004346FEF753F9D4E90623FEF7A8F8079172
:102190001290D4E910A35246384641460993FEF7FF
:1021A00045F9CDE90001D4E90C939B464A46FEF778
:1021B00037F9D4E90E23CDE90B32FEF731F9D4E932
:1021C0000023FEF78CF83A464346FEF72FF9D4E990
:1021D0000A23FEF784F805460E46DDE900014A466B
:1021E0005B46FEF720F98B460490DDE90001DDE94E
:1021F0000B32FEF718F90D910090D4E902013A462E
:102200004346FEF713F95246099BFEF768F8CDE9FD
:102210000E01D4E9042328463146FEF760F88046D3
:102220008A4602460B4628463146FEF771F981463A
:102230000F46424653460D990098FEF769F98046CD
:102240008A46DDE91801079B129AFEF7E9F80B911F
:102250004A463B461090FEF7E9F8079B129AFEF7B4
:102260003EF8C4E9060107911290404651460B9B87
:10227000109AFEF7DBF8089B069AFEF730F8C4E9DF
:102280000801049806902A46334648463946FEF728
:10229000CDF82A463346FEF7C6F8C4E90A015B4684
:1022A00048463946069AFEF7C1F85B46049AFEF79F
:1022B000BAF8C4E90C012A46334640465146FEF7B7
:1022C000B5F80D9B009AFEF7AEF8C4E90E015B4627
:1022D00040465146069AFEF7A9F8DDE90E23FEF7BF
:1022E000A2F8C4E91001079912981AB0BDE8F09F4E
:1022F00010B5194C174860601848A0600F20FEF711
:102300005DFC6168032088470520FEF757FC616883
:10231000032088470120FEF751FC6168322088477E
:10232000204681784078C90041EA8000C0B26168E7
:1023300040F02000884761680820884761680120D4
:1023400088476168062088476168BDE810400C2016
:1023500008470000ED280008A00000204D280008D4
:1023600010B5194C174860601848A0600F20FEF7A0
:1023700025FC6168302088470520FEF71FFC616856
:10238000302088470120FEF719FC6168302088471B
:10239000204681784078C90041EA8000C0B2616877
:1023A00040F0300088476168082088476168012054
:1023B00088476168062088476168BDE810400C20A6
:1023C0000847000075290008A00000204D280008DB
:1023D00010B5044C0120616888476168BDE8104071
:1023E00002200847A0000020094A526841B1012993
:1023F00008D0022908D0032908D1D430C0B2104730
:102400008030FBE7C030F9E79430F7E77047000011
:10241000A000002005480078022803D0032803D13B
:10242000FFF79EBFFFF764BF70470000A0000020C9
:1024300070B50446044D02E0A9688847641C207802
:102440000028F9D170BD0000A00000202DE9F04166
:1024500086B08046012504A8CDE9000564242B46FA
:102460007522D02102944046FEF782FD9DF81000AF
:10247000682803D0012006B0BDE8F081002703AE34
:102480008DF80C700096CDE9015401236B22D02108
:102490004046FEF795FE07208DF80C000096CDE92A
:1024A000015401231922D0214046FEF789FE8DF800
:1024B0000C700096CDE9015401231C22D021404626
:1024C000FEF77EFE8DF80C700096CDE901540123D5
:1024D0001B22D0214046FEF773FE0020CBE7000010
:1024E0002DE9F04F89B00C4664230E2204A98DE833
:1024F0000E0001233B22D021FEF73AFDBDF810006B
:1025000040BA00B22080BDF8121049BA09B2618009
:102510008946BDF8141049BA09B2A1808846BDF8B1
:10252000161049BA0FFA81FABDF8181049BA0FB25D
:102530002784BDF81A1049BA0EB26684BDF81C1083
:1025400049BA0DB2A584FEF772F86FF00D0B5A462A
:10255000FEF74DF8C4E902014846FEF768F85A460E
:10256000FEF745F8C4E904014046FEF760F8002292
:10257000614BFDF7CDFFC4E906015046FEF74EF86A
:102580005E49FDF76EFE5E49FDF713FE2064384696
:10259000FEF74DF85B4F00223B46FDF7B9FFC4E95B
:1025A0000A013046FEF743F800223B46FDF7B0FF34
:1025B000C4E90C012846FEF73AF800223B46FDF735
:1025C000A7FFC4E90E01FEF709FC4F4D2968401A28
:1025D000FEF73EF800224D4BFDF79AFF81468A46F2
:1025E000FEF7FCFB2860B4F90010B4F9040049437D
:1025F00000FB0010FEF71BF801F024F8002205464E
:102600000E461346FEF732F810D0B4F90200FEF77A
:102610000EF82A463346FDF77BFF00F0BDFC3C4A2E
:102620003C4BFDF703FF0746884601E00027B8460C
:10263000B4F90400FDF7FBFF0646B4F900000D46AF
:102640004042FDF7F4FF32462B4600F0B5FD304A1C
:10265000304BFDF7EBFEDFF8C0B005460E4600221A
:102660005B46FEF703F806D2D4E9140100222B4B97
:10267000FEF714F80DD30022284B28463146FEF70A
:102680000DF80DD2D4E9140100225B46FDF7EEFFF0
:1026900006D21D485030C0E90656C4E914560DE074
:1026A000CDE9029AD4E90C01CDE9000116482A4689
:1026B00033465030FFF756FDC4E91401D4E9140144
:1026C00021F000410022154BFDF7E8FF03D2E16A3B
:1026D00081F00041E162CDE9029AD4E90A01CDE935
:1026E000000109483A4643460830FFF73BFDC4E97C
:1026F000120109B0BDE8F08F0029CC400000AA43C8
:10270000B81E1242006060400000002000408F4070
:10271000F8C1631ADCA54C40008056C000805640CA
:102720002DE9F04385B000242548009401940294DB
:102730000394816941F010018161816901F0100108
:102740000491816941F020018161816901F02001DA
:102750000491816941F008018161816901F00801FA
:102760000491816941F0040181618069DFF854803E
:1027700000F004004FF40055049000222946404622
:10278000FEF726FBDFF840904FF60247002239465D
:102790004846FEF71DFB0095022601250396CDE96C
:1027A000015469464046FEF71BFA00970396CDE9AF
:1027B000015469464846FEF713FA05B0BDE8F083B8
:1027C0000010024000100140000C01400D4810B5FF
:1027D0000B4901600C49416000214FF48042816047
:1027E000C0E9031241618161C1610162FEF7FCFA37
:1027F000002803D0BDE81040FEF770B910BD0000FE
:102800000054004078020020801A06000C4810B5E1
:102810000A4901604FF4E1314160002181600C22DE
:10282000C160C0E904128161C161FFF7BFF90028EE
:1028300003D0BDE81040FEF751B910BD003801408B
:10284000CC020020FEE77047704700002DE9F04100
:1028500004460120FEF7B2F90122DFF88880D50294
:1028600029464046FEF7B4FA6E1000223146404633
:10287000FEF7AEFA4FF47047002239464046FEF7A5
:10288000A7FA2009010301224046FEF7A1FA01221E
:1028900002214046FEF79CFA002202214046FEF744
:1028A00097FA012229464046FEF792FA0022314665
:1028B0004046FEF78DFA002239464046FEF788FA78
:1028C0002007010C01224046FEF782FA0122022174
:1028D0004046FEF77DFA4046BDE8F0410022022165
:1028E000FEF776BA000C0140704700002DE9F04178
:1028F00004460120FEF762F91D4E4FF440650022A8
:1029000029463046FEF764FA4FF4704700223946F4
:102910003046FEF75DFA2009010301223046FEF73A
:1029200057FA012202213046FEF752FA0022022114
:102930003046FEF74DFA002229463046FEF748FAA7
:10294000002239463046FEF743FA2007010C0122E7
:102950003046FEF73DFA012202213046FEF738FAF2
:102960003046BDE8F04100220221FEF731BA0000F6
:10297000000C014070B504460120FEF71FF9104D10
:1029800000224FF440612846FEF722FA00224FF45D
:1029900070412846FEF71CFA4FF6FF7000EA04313A
:1029A00001222846FEF714FA012202212846FEF7EA
:1029B0000FFA2846BDE8704000220221FEF708BA4F
:1029C000000C0140FEF7C2BC30B58FB0282168462C
:1029D000FDF7BFFB14210AA8FDF7BBFB012108048A
:1029E000CDE900100024029402250491CDE907509E
:1029F0004FF4E01009906846FEF72CFE0F20CDE959
:102A00000A056802CDE90C4002210AA80E94FEF7DF
:102A100035FD0FB030BD704710B5406A0021C1854B
:102A2000C184FEF7BCFF10BD0168CA6822F4907231
:102A3000CA6001684A6922F001024A61016B0129FA
:102A400004D10168CA6822F01002CA60202180F80F
:102A50003E1000210163704708B590F83E1022290E
:102A600001D0022008BD82684FF480539A4201D100
:102A7000016921B1816A9A421BD04AB10AE0026819
:102A8000816A5268C2F308020A80816A891C08E0E0
:102A9000026972B10268526802F07F020A70816AAC
:102AA000491C8162C18D491E0904090CC18503D0EE
:102AB00019E002685268F1E70168CA6822F0200252
:102AC000CA600168CA6822F48072CA6001684A69F3
:102AD00022F001024A61202180F83E10016B012999
:102AE00003D0FFF7EBF8002008BD00210163016867
:102AF000CA6822F01002CA6001680A68D20602D5CC
:102B00000A6849680091818DFEF748FFEBE70000F5
:102B100070B5044600680169E26821F44051114330
:102B200001612169A0680843616908432168CA6896
:102B300041F20C639A430243CA6020684169A2696A
:102B400021F44071114341611E492068884202D13D
:102B5000FEF73AFD01E0FEF727FD00EBC00101EBB7
:102B60000012606864218000B2FBF0F3B3FBF1F364
:102B70006FF018067343B2FBF0F5B2FBF0F605EB0D
:102B80008305322303EB0515B5FBF1F5B6FBF1F632
:102B900005F0F00505EB0615B2FBF0F6B2FBF0F020
:102BA000B0FBF1F06FF01802504306EB800003EB2E
:102BB0000010B0FBF1F0216800F00F00284488609D
:102BC00070BD00000038014081628285C28500210D
:102BD0000164222280F83E2080F83C100168CA6817
:102BE00042F48072CA6001684A6942F001024A6197
:102BF0000068C16841F02001C160002070472DE9E4
:102C0000F041984617460E460446069D1DE0681C96
:102C10001BD02DB1FEF7E2F8A0EB0800A84214D9B2
:102C20002068C16821F4D071C1602068416921F039
:102C300001014161202084F83D0084F83E0000201D
:102C400084F83C000320BDE8F0812068006836EA83
:102C5000000004D00020B842D9D00020F3E70120C2
:102C6000F9E700000148FEF79BBE0000CC020020FF
:102C7000FEE700000FB4084B10B504A902AA0398A0
:102C800000F0A8F8044602A9002000F07FF92046D1
:102C900010BC5DF814FB00008D2F0008490050EABD
:102CA000C12018BF04204A0D18BF40F0010040F2B7
:102CB000FF72B2EB515F08BF40F00200012808BF6D
:102CC000052070470907090E002804DB00F1E02009
:102CD00080F80014704700F00F0000F1E02080F849
:102CE000141D70472DE9F0414F1E00EBC70104464B
:102CF000D1E9000115461E4637F006020DD02A46DE
:102D00003346FDF793FB7F1E04EBC703D3E9002393
:102D1000FDF7E5FA37F00602F1D1022F25D0042F96
:102D200013D0062F18BFBDE8F0812A463346FDF7C1
:102D30007DFBD4E90A23FDF7D2FA2A463346FDF794
:102D400075FBD4E90823FDF7CAFA2A463346FDF796
:102D50006DFBD4E90623FDF7C2FA2A463346FDF798
:102D600065FBD4E90423FDF7BAFA2A463346FDF79A
:102D70005DFBD4E90223FDF7B2FA2A463346FDF79C
:102D800055FBD4E90023BDE8F041FDF7A8BA0122C4
:102D9000FDF72DBCFDF7A3BA024A00201107FDF78D
:102DA00026BC000001FDFFFF02E008C8121F08C199
:102DB000002AFAD170477047002001E001C1121FBC
:102DC000002AFBD1704700000149086070470000ED
:102DD000000100202DE9FF4F8BB09A460F460546B3
:102DE000002606E025280BD052460D9990476D1C11
:102DF000761C28780028F5D10FB03046BDE8F08F5A
:102E00000024A0460122604900E0044315F8013F78
:102E1000203B02FA03F00842F7D128782E2817D178
:102E200015F8010F44F004042A280ED06FF02F0289
:102E30002878A0F1300109290AD808EB880102EBB3
:102E4000410100EB01086D1CF2E757F8048B6D1C83
:102E5000287869283ED006DC0028CDD063280BD026
:102E6000642804D136E0732810D075284BD0524620
:102E70000D999047761C85E017F8040B8DF800003B
:102E800000208DF80100E946012003E057F8049B7B
:102E90004FF0FF3061074FF0000401D40AE0641CDA
:102EA00044450DDA8442FADB19F804100029F6D102
:102EB00006E0641C8442FCDB19F804100029F8D1F8
:102EC000264404E019F8010B52460D999047641E00
:102ED000F8D257E001CF4FF00A0B002802DA404247
:102EE0002D2102E0210504D52B218DF8241001218C
:102EF00003E0E10705D02021F7E70DF12009089153
:102F00000CE00021F9E701CF4FF00A0BF9E7594631
:102F1000FDF7DCFB01F1300209F8012D0028F6D1A4
:102F2000ADEB090000F1200B600701D44FF0010860
:102F3000D84502DDA8EB0B0000E00020804600240D
:102F400006E009A85246005D0D999047641C761C66
:102F500008988442F5DB04E0302052460D999047F2
:102F6000761CB8F10001A8F10108F5DC05E019F8BC
:102F7000010B52460D999047761CBBF10001ABF155
:102F8000010BF4DC6D1C34E7092801000A68531CAE
:102F90000B601070704700002DE9F84F04460D4695
:102FA00021F0004000917349814211DC724988424E
:102FB00001DC06D12CB120462946BDE8F84FFFF7C9
:102FC000E6BE6E48002DCCBF6D496E49BDE8F88F56
:102FD0006D49814211DD6D498142D8BF4FF0FF3606
:102FE0006DDD20462946FFF759FE042808BFFFF78C
:102FF000D3FE20462946BDE8F88F6549654F25F088
:103000000045814233DD6449814219DD00263246A4
:103010004FF0804320462946FDF761F980468A46F5
:10302000012220462946FDF7E2FA00223B46FDF741
:10303000F7F942465346FDF76BFA04460D463EE06B
:1030400001260022BA463B4620462946FDF747F9AD
:1030500080460F460022534620462946FDF7E0F9F8
:1030600042463B46FDF754FA04460D4627E04B49DD
:1030700081421BDDDFF828A10226002253462046AC
:103080002946FDF7D3F900223B46FDF728F9804693
:103090000F460022534620462946FDF7C1F9424615
:1030A0003B46FDF735FA04460D4608E00326224666
:1030B0002B4600203B49FDF72BFA04460D462246DD
:1030C0002B4610461946FDF7B1F98B46824602465B
:1030D0000B46FDF7ABF907460246334888460B46D8
:1030E00006217844FFF7FEFD52465B46FDF79EF948
:1030F00082462E488B463A46434605217844FFF7E0
:10310000F1FD3A464346FDF791F902460B46002E83
:10311000504659460CDAFDF7E2F822462B46FDF7F9
:1031200085F901B022462B46BDE8F04FFDF77BB98B
:10313000FDF7D5F822462B46FDF778F91C4A7A446C
:1031400002EBC603D3E90023FDF76AF922462B46BA
:10315000FDF766F9174A7A4402EBC603D3E9002368
:10316000FDF761F9009A002AB8BF81F00041BDE87F
:10317000F88F0000000010440000F07F182D445428
:10318000FB21F93FFB21F9BF0000DC3F0000203E9E
:103190000000F33F0000F03F0000E63F00800340E6
:1031A0000000F83F0000F0BF2A060000E80500001C
:1031B000860500004E0500002DE9F04D9446CCF147
:1031C000000423F000464CEA0404524F46EAD4744B
:1031D0009A46884621F00042BC4206D8454240EA61
:1031E000050442EAD474BC4204D9BDE8F04D6246FD
:1031F000FFF7D0BDAAF14055A5F17F6555EA0C0453
:103200000BD0022404EAAA74434DDFF810E144EA2B
:10321000D87452EA000B04D00CE0BDE8F04DFFF783
:10322000BBBE002C14BF012CBDE8F08D022C30D0A9
:10323000032C32D056EA0C0B0AD0BE4220D1BA423F
:1032400009D126F0804622F080423346114617E02D
:1032500000291ADB25E0DFF8C8B0FB44002C04BFCE
:10326000DBE90001BDE8F08D012C02BFDBE90001C4
:1032700081F00041BDE8F08D022C0AD0032C0CD067
:10328000BA4212D1B8F1000F0BDA23482549BDE844
:10329000F08D28462449BDE8F08D28467146BDE8EA
:1032A000F08D1D482149BDE8F08D921B12153C2A76
:1032B000C4BF19481D490EDCBAF1000FBEBF12F1A0
:1032C0003C0F0020014606DB6246FDF721F921F0A4
:1032D0000041FFF761FE002C08BFBDE8F08D012C16
:1032E00004BF81F00041BDE8F08D114A114B022C62
:1032F00007D0FDF795F82A46BDE8F04D0A4BFDF7DB
:103300008FB8FDF78DF82A46BDE8F04D064BFDF766
:103310008AB800000000F07F182D4454FB2109C03A
:10332000E2040000FB21F9BFFB210940FB21F93F2A
:10333000075C143326A6A13C1CB5FEF70FF8FFF777
:1033400043FBFFF7EDF9FFF741FAFFF75FFA744827
:10335000002402214470017001258570FFF75AF89E
:103360000120FDF72BFC00210846FFF73DF86DA07A
:10337000FFF75EF84FF4FA663046FDF71FFCFFF7E3
:1033800027F8FDF7DFFA40B96AA0FFF751F840F6D9
:10339000B830FDF713FCFFF71BF840F24D1168A0A1
:1033A000FDF7F4FA6A4F10B33C706AA0FFF740F8DB
:1033B0003046FDF703FCFFF70BF86948FFF746F8C6
:1033C0000128FAD067A0FFF733F83046FDF7F6FB87
:1033D000FEF7FEFF4FF070084FF06E0900203C46EC
:1033E0000146C4E90400C4E9060005461FE03D703B
:1033F0005FA0DBE762495A48FFF772F8604ED6E9F2
:103400000A23D4E90401FCF76AFFC4E90401D6E900
:103410000C23D4E90601FCF762FFC4E90601D6E9F2
:103420000E23D4E90801FCF75AFF6D1CEDB2C4E984
:10343000080160788542DDD3C0B2FDF709F9054681
:103440000E46D4E9040100F0EFF82A463346FDF7B2
:103450005FF8C4E90A016078FDF7FAF805460E4600
:10346000D4E9060100F0E0F82A463346FDF750F8AB
:10347000C4E90C016078FDF7EBF805460E46D4E987
:10348000080100F0D1F82A463346FDF741F8C4E9B7
:103490000E01CDE9000104F128010FC900F076F812
:1034A000A070E0782D280AD078280BD04FF00002C9
:1034B0002546792813460BD0D5E908010AE02D20CE
:1034C00020710FE025460022D5E90401134601E0F2
:1034D000D5E90601FDF7E2F802D285F8048001E0A3
:1034E00085F80490207818B12179E078FDF796FAF4
:1034F0004FF400512348FDF763FC00210846FEF716
:1035000073FF214DE0782968884700210120FEF7EC
:103510006BFF2968207988476420FDF74FFB5DE742
:10352000A000002020202057454C434F4D4521202E
:103530003A2900004553502052656164790000002B
:103540003139322E3136382E34332E3135330000B6
:10355000B0000020544350204661696C656400004F
:103560007802002047592D353231204F4B000000A2
:1035700054435020436F6E6E6563746564000000B1
:103580002002002000100140A80000202DE9F05F7B
:103590001646DDE90A451F46804689464FF02D0B49
:1035A000DFF880A0FDF77AF822462B461CD2404671
:1035B0004946FDF773F82BD254464046D4E902231E
:1035C0004946FDF76BF802D27820E07001E084F8FC
:1035D00003B07820BDE8F09F7A20F07002E000BFD1
:1035E00086F803B07A20F5E730463946FDF756F8FD
:1035F0000ED254463046D4E902233946FDF74EF840
:1036000002D27920E07001E084F803B07920E1E78C
:1036100056462046D6E902232946FDF73FF8DFD279
:10362000DAE70000B000002070B5002204460D4625
:103630001346FDF733F8204601D2294670BD85F0C8
:10364000004170BD2DE9F04106460F46FDF709F92E
:10365000041E0D4618BF0120284320F00040C0F191
:103660007F6000F1E040C00F0ED0301C18BF012079
:10367000384320F00040C0F17F6000F1E040C00F0F
:1036800004BF0120FFF7A0FB20462946BDE8F081DA
:103690000000000000000000010203040607080902
:1036A00000000000010203044FBB610567ACDD3F71
:1036B000182D4454FB21E93F9BF681D20B73EF3F59
:1036C000182D4454FB21F93FE2652F227F2B7A3CD1
:1036D000075C143326A6813CBDCBF07A8807703C8A
:1036E000075C143326A6913CC4EB98999999C9BFFD
:1036F000711623FEC671BCBF6D9A74AFF2B0B3BF32
:103700009AFDDE522DDEADBF2F6C6A2C44B4A2BFF1
:103710000D5555555555D53FFF8300922449C23F5D
:103720006E204CC5CD45B73F513DD0A0660DB13F91
:10373000EB0D76244B7BA93F11DA22E33AAD903FA3
:1037400000000000000000006837000800000020B2
:1037500004010000A82D00086C38000804010020B6
:103760000C060000B82D000800000000000000005A
:10377000000000E04D62503F000000C07493683FBD
:10378000000000E051B89E3F000000000000000073
:103790000000000000000000000000000000000029
:1037A0000000000000000000000000000000000019
:1037B0000000000000000000000000E04D62503FEB
:1037C000000000C07493683F000000E051B89E3FC5
:1037D00000000000000000000000000000000000E9
:1037E00000000000000000000000000000000000D9
:1037F00000000000000000000000000000000000C9
:1038000000000000000000000000000000000000B8
:103810000000000000000000001E0000000000008A
:103820000000000000002040000000000000000038
:103830000000000000000000000000000000000088
:103840000000000000000000000000000000000078
:103850000000000000000000010000001000000057
:0C386000000000000024F4000000000044
:04000005080000ED02
:00000001FF
